{
    "txid": "fbe0d626b9d8cfc2768872ecae7c467dda83266ab11a2886de0ba86e1929d930",
    "hash": "fbe0d626b9d8cfc2768872ecae7c467dda83266ab11a2886de0ba86e1929d930",
    "version": 2,
    "size": 85,
    "vsize": 85,
    "locktime": 0,
    "vin": [
        {
            "txid": "5897de6bd6027a475eadd57019d4e6872c396d0716c4875a5f1a6fcfdf385c1f",
            "vout": 0,
            "scriptSig": {
                "asm": "",
                "hex": ""
            },
            "sequence": 4294967293
        }
    ],
    "vout": [
        {
            "value": 0.18000000,
            "n": 0,
            "scriptPubKey": {
                "asm": "OP_DUP OP_HASH160 61a065bf439e6ea3eaed02365d55c6099997d091 OP_EQUALVERIFY OP_CHECKSIG",
                "hex": "76a91461a065bf439e6ea3eaed02365d55c6099997d09188ac",
                "reqSigs": 1,
                "type": "pubkeyhash",
                "addresses": [
                    "EQBGSCychyTbtB8jhWqbHmjgvmax9S9xHBw4"
                ]
            }
        }
    ],
    "hex": "02000000011f5c38dfcf6f1a5f5a87c416076d392c87e6d41970d5ad5e477a02d66bde97580000000000fdffffff0180a81201000000001976a91461a065bf439e6ea3eaed02365d55c6099997d09188ac00000000"
}
