{
    "txid": "5b7310a11954d349113b4eeb2fc127a6133d730dadf913f6c403fc199a74fee4",
    "hash": "5b7310a11954d349113b4eeb2fc127a6133d730dadf913f6c403fc199a74fee4",
    "version": 1,
    "size": 224,
    "vsize": 224,
    "locktime": 0,
    "vin": [
        {
            "txid": "4d49a71ec9da436f71ec4ee231d04f292a29cd316f598bb7068feccabdc59485",
            "vout": 0,
            "scriptSig": {
                "asm": "30450221009630a9a6c31e81d07a69c95583ed4f26fbcb2ddd8a3f806ee26f1b43dbf4298102207ec1f043ac5c6e5e0b22326523bff6c2dd3916788f52f89b40fa9ecd17e8fc99[ALL] 0479be667ef9dcbbac55a06295ce870b07029bfcdb2dce28d959f2815b16f81798483ada7726a3c4655da4fbfc0e1108a8fd17b448a68554199c47d08ffb10d4b8",
                "hex": "4830450221009630a9a6c31e81d07a69c95583ed4f26fbcb2ddd8a3f806ee26f1b43dbf4298102207ec1f043ac5c6e5e0b22326523bff6c2dd3916788f52f89b40fa9ecd17e8fc9901410479be667ef9dcbbac55a06295ce870b07029bfcdb2dce28d959f2815b16f81798483ada7726a3c4655da4fbfc0e1108a8fd17b448a68554199c47d08ffb10d4b8"
            },
            "sequence": 4294967295
        }
    ],
    "vout": [
        {
            "value": 0.00100000,
            "n": 0,
            "scriptPubKey": {
                "asm": "OP_DUP OP_HASH160 8fd139bb39ced713f231c58a4d07bf6954d1c201 OP_EQUALVERIFY OP_CHECKSIG",
                "hex": "76a9148fd139bb39ced713f231c58a4d07bf6954d1c20188ac",
                "reqSigs": 1,
                "type": "pubkeyhash",
                "addresses": [
                    "EQBLeSZ5F54gDD1zTrfWaPEtuHDb1hJBHREn"
                ]
            }
        }
    ],
    "hex": "01000000018594c5bdcaec8f06b78b596f31cd292a294fd031e24eec716f43dac91ea7494d000000008b4830450221009630a9a6c31e81d07a69c95583ed4f26fbcb2ddd8a3f806ee26f1b43dbf4298102207ec1f043ac5c6e5e0b22326523bff6c2dd3916788f52f89b40fa9ecd17e8fc9901410479be667ef9dcbbac55a06295ce870b07029bfcdb2dce28d959f2815b16f81798483ada7726a3c4655da4fbfc0e1108a8fd17b448a68554199c47d08ffb10d4b8ffffffff01a0860100000000001976a9148fd139bb39ced713f231c58a4d07bf6954d1c20188ac00000000"
}
