{
    "txid": "0596733c4995059d89b04d40f3ad1fa09bc1e1b9a52bb78c0b1055d62b429fad",
    "hash": "0596733c4995059d89b04d40f3ad1fa09bc1e1b9a52bb78c0b1055d62b429fad",
    "version": 2,
    "size": 83,
    "vsize": 83,
    "locktime": 0,
    "vin": [
        {
            "txid": "5897de6bd6027a475eadd57019d4e6872c396d0716c4875a5f1a6fcfdf385c1f",
            "vout": 0,
            "scriptSig": {
                "asm": "",
                "hex": ""
            },
            "sequence": 4294967293
        }
    ],
    "vout": [
        {
            "value": 0.18000000,
            "n": 0,
            "scriptPubKey": {
                "asm": "OP_HASH160 dfffdb76c5fed7a21a205ee7ca0c8e84a633bfa2 OP_EQUAL",
                "hex": "a914dfffdb76c5fed7a21a205ee7ca0c8e84a633bfa287",
                "reqSigs": 1,
                "type": "scripthash",
                "addresses": [
                    "EQshkiwK15DyQPSsJgwLwL6uovzbXuxUEAE6"
                ]
            }
        }
    ],
    "hex": "02000000011f5c38dfcf6f1a5f5a87c416076d392c87e6d41970d5ad5e477a02d66bde97580000000000fdffffff0180a812010000000017a914dfffdb76c5fed7a21a205ee7ca0c8e84a633bfa28700000000"
}
