{
    "txid": "3def548fa90a496527b3c06aeb7ca4441ae9dbc70b29ec65e7b0d8ec6067fbea",
    "hash": "3def548fa90a496527b3c06aeb7ca4441ae9dbc70b29ec65e7b0d8ec6067fbea",
    "version": 1,
    "size": 192,
    "vsize": 192,
    "locktime": 0,
    "vin": [
        {
            "txid": "4d49a71ec9da436f71ec4ee231d04f292a29cd316f598bb7068feccabdc59485",
            "vout": 0,
            "scriptSig": {
                "asm": "3045022100a324490c4302e97176cff972ba75cb7570810016d63a21e094a4ac59536427f502204ea147d23f9b31e96f5248ba6706271b0f9a93904b1ae1ab0f75419d889463d1[ALL] 02f9308a019258c31049344f85f89d5229b531c845836f99b08601f113bce036f9",
                "hex": "483045022100a324490c4302e97176cff972ba75cb7570810016d63a21e094a4ac59536427f502204ea147d23f9b31e96f5248ba6706271b0f9a93904b1ae1ab0f75419d889463d1012102f9308a019258c31049344f85f89d5229b531c845836f99b08601f113bce036f9"
            },
            "sequence": 4294967295
        }
    ],
    "vout": [
        {
            "value": 0.00100000,
            "n": 0,
            "scriptPubKey": {
                "asm": "OP_DUP OP_HASH160 6c772e9cf96371bba3da8cb733da70a2fcf20078 OP_EQUALVERIFY OP_CHECKSIG",
                "hex": "76a9146c772e9cf96371bba3da8cb733da70a2fcf2007888ac",
                "reqSigs": 1,
                "type": "pubkeyhash",
                "addresses": [
                    "EQBHRX32rBb2gE5xucP8QDhbXH2s1V2yWP6v"
                ]
            }
        }
    ],
    "hex": "01000000018594c5bdcaec8f06b78b596f31cd292a294fd031e24eec716f43dac91ea7494d000000006b483045022100a324490c4302e97176cff972ba75cb7570810016d63a21e094a4ac59536427f502204ea147d23f9b31e96f5248ba6706271b0f9a93904b1ae1ab0f75419d889463d1012102f9308a019258c31049344f85f89d5229b531c845836f99b08601f113bce036f9ffffffff01a0860100000000001976a9146c772e9cf96371bba3da8cb733da70a2fcf2007888ac00000000"
}
