{
    "txid": "cf9af4038376e9f278f719512fc87b36c3697d52037b35b2a81018418c41abf1",
    "hash": "cf9af4038376e9f278f719512fc87b36c3697d52037b35b2a81018418c41abf1",
    "version": 2,
    "size": 85,
    "vsize": 85,
    "locktime": 0,
    "vin": [
        {
            "txid": "5897de6bd6027a475eadd57019d4e6872c396d0716c4875a5f1a6fcfdf385c1f",
            "vout": 0,
            "scriptSig": {
                "asm": "",
                "hex": ""
            },
            "sequence": 4294967293
        }
    ],
    "vout": [
        {
            "value": 0.18000000,
            "n": 0,
            "scriptPubKey": {
                "asm": "OP_DUP OP_HASH160 8fd139bb39ced713f231c58a4d07bf6954d1c201 OP_EQUALVERIFY OP_CHECKSIG",
                "hex": "76a9148fd139bb39ced713f231c58a4d07bf6954d1c20188ac",
                "reqSigs": 1,
                "type": "pubkeyhash",
                "addresses": [
                    "EQBLeSZ5F54gDD1zTrfWaPEtuHDb1hJBHREn"
                ]
            }
        }
    ],
    "hex": "02000000011f5c38dfcf6f1a5f5a87c416076d392c87e6d41970d5ad5e477a02d66bde97580000000000fdffffff0180a81201000000001976a9148fd139bb39ced713f231c58a4d07bf6954d1c20188ac00000000"
}
