{
    "txid": "29887886593f4241f16028e7bcc11ff45c6888babc504899fd4936bd1b2e1ccb",
    "hash": "29887886593f4241f16028e7bcc11ff45c6888babc504899fd4936bd1b2e1ccb",
    "version": 1,
    "size": 190,
    "vsize": 190,
    "locktime": 0,
    "vin": [
        {
            "txid": "4d49a71ec9da436f71ec4ee231d04f292a29cd316f598bb7068feccabdc59485",
            "vout": 0,
            "scriptSig": {
                "asm": "3045022100c45e2d3564ea6069aa665285ecc998cbc8628dcdca71b86d9f02cd853a3242ee02202f475270b5b487c9fd478c4f4719e364d4a922e06cd1cfbf8d168c47e010d81f[ALL] 03e45d905c7406ac861b90e6f2c7cf4f3736f63d480abdeaaf482e355a8960b4f7",
                "hex": "483045022100c45e2d3564ea6069aa665285ecc998cbc8628dcdca71b86d9f02cd853a3242ee02202f475270b5b487c9fd478c4f4719e364d4a922e06cd1cfbf8d168c47e010d81f012103e45d905c7406ac861b90e6f2c7cf4f3736f63d480abdeaaf482e355a8960b4f7"
            },
            "sequence": 4294967295
        }
    ],
    "vout": [
        {
            "value": 0.00100000,
            "n": 0,
            "scriptPubKey": {
                "asm": "OP_HASH160 6709d5f92b398fc4d880e127502dfc774af48515 OP_EQUAL",
                "hex": "a9146709d5f92b398fc4d880e127502dfc774af4851587",
                "reqSigs": 1,
                "type": "scripthash",
                "addresses": [
                    "EQsWj98RQj3EJXojbFWeBE7RJWyz2vt7gc9K"
                ]
            }
        }
    ],
    "hex": "01000000018594c5bdcaec8f06b78b596f31cd292a294fd031e24eec716f43dac91ea7494d000000006b483045022100c45e2d3564ea6069aa665285ecc998cbc8628dcdca71b86d9f02cd853a3242ee02202f475270b5b487c9fd478c4f4719e364d4a922e06cd1cfbf8d168c47e010d81f012103e45d905c7406ac861b90e6f2c7cf4f3736f63d480abdeaaf482e355a8960b4f7ffffffff01a08601000000000017a9146709d5f92b398fc4d880e127502dfc774af485158700000000"
}
