{
    "txid": "7edb0dfdc8a1f636c71721fd9411616ad201719c84ebb1e9634f9e44b7b58286",
    "hash": "7edb0dfdc8a1f636c71721fd9411616ad201719c84ebb1e9634f9e44b7b58286",
    "version": 2,
    "size": 174,
    "vsize": 174,
    "locktime": 0,
    "vin": [
        {
            "txid": "5897de6bd6027a475eadd57019d4e6872c396d0716c4875a5f1a6fcfdf385c1f",
            "vout": 0,
            "scriptSig": {
                "asm": "",
                "hex": ""
            },
            "sequence": 4294967295
        }
    ],
    "vout": [
        {
            "value": 0.18000000,
            "n": 0,
            "scriptPubKey": {
                "asm": "OP_HASH160 dfffdb76c5fed7a21a205ee7ca0c8e84a633bfa2 OP_EQUAL",
                "hex": "a914dfffdb76c5fed7a21a205ee7ca0c8e84a633bfa287",
                "reqSigs": 1,
                "type": "scripthash",
                "addresses": [
                    "EQshkiwK15DyQPSsJgwLwL6uovzbXuxUEAE6"
                ]
            }
        },
        {
            "value": 0.00000000,
            "n": 1,
            "scriptPubKey": {
                "asm": "OP_RETURN 54686973204f505f52455455524e207472616e73616374696f6e206f7574707574207761732063726561746564206279206d6f646966696564206372656174657261777472616e73616374696f6e2e",
                "hex": "6a4c4f54686973204f505f52455455524e207472616e73616374696f6e206f7574707574207761732063726561746564206279206d6f646966696564206372656174657261777472616e73616374696f6e2e",
                "type": "nulldata"
            }
        }
    ],
    "hex": "02000000011f5c38dfcf6f1a5f5a87c416076d392c87e6d41970d5ad5e477a02d66bde97580000000000ffffffff0280a812010000000017a914dfffdb76c5fed7a21a205ee7ca0c8e84a633bfa2870000000000000000526a4c4f54686973204f505f52455455524e207472616e73616374696f6e206f7574707574207761732063726561746564206279206d6f646966696564206372656174657261777472616e73616374696f6e2e00000000"
}
