{
    "txid": "37f27cff88e47671bff2fc2f335429c0fe349b92be0c490361b1941a732e8247",
    "hash": "37f27cff88e47671bff2fc2f335429c0fe349b92be0c490361b1941a732e8247",
    "version": 1,
    "size": 124,
    "vsize": 124,
    "locktime": 0,
    "vin": [
    ],
    "vout": [
        {
            "value": 1.00000000,
            "n": 0,
            "scriptPubKey": {
                "asm": "2 02a5613bd857b7048924264d1e70e08fb2a7e6527d32b7ab1bb993ac59964ff397 021ac43c7ff740014c3b33737ede99c967e4764553d1b2b83db77c83b8715fa72d 02df2089105c77f266fa11a9d33f05c735234075f2e8780824c6b709415f9fb485 3 OP_CHECKMULTISIG",
                "hex": "522102a5613bd857b7048924264d1e70e08fb2a7e6527d32b7ab1bb993ac59964ff39721021ac43c7ff740014c3b33737ede99c967e4764553d1b2b83db77c83b8715fa72d2102df2089105c77f266fa11a9d33f05c735234075f2e8780824c6b709415f9fb48553ae",
                "reqSigs": 2,
                "type": "multisig",
                "addresses": [
                    "EQBGSCychyTbtB8jhWqbHmjgvmax9SDcQG9i",
                    "EQBBuQ5mb4rgioFt4u5qNTextrQQHyiHjcxa",
                    "EQBCvVLq7vmc12buCLSsjwF5YHeTqFYgqF7V"
                ]
            }
        }
    ],
    "hex": "01000000000100e1f5050000000069522102a5613bd857b7048924264d1e70e08fb2a7e6527d32b7ab1bb993ac59964ff39721021ac43c7ff740014c3b33737ede99c967e4764553d1b2b83db77c83b8715fa72d2102df2089105c77f266fa11a9d33f05c735234075f2e8780824c6b709415f9fb48553ae00000000"
}
