{
    "txid": "5fa5029b3648aeef8c948e3cb27d74caf711e49c2c6ff5d7b97a9e05e0275c17",
    "hash": "5fa5029b3648aeef8c948e3cb27d74caf711e49c2c6ff5d7b97a9e05e0275c17",
    "version": 1,
    "size": 126,
    "vsize": 126,
    "locktime": 0,
    "vin": [
        {
            "txid": "5897de6bd6027a475eadd57019d4e6872c396d0716c4875a5f1a6fcfdf385c1f",
            "vout": 0,
            "scriptSig": {
                "asm": "",
                "hex": ""
            },
            "sequence": 4294967293
        },
        {
            "txid": "5897de6bd6027a475eadd57019d4e6872c396d0716c4875a5f1a6fcfdf385c1f",
            "vout": 0,
            "scriptSig": {
                "asm": "",
                "hex": ""
            },
            "sequence": 1
        }
    ],
    "vout": [
        {
            "value": 0.18000000,
            "n": 0,
            "scriptPubKey": {
                "asm": "OP_DUP OP_HASH160 1fc11f39be1729bf973a7ab6a615ca4729d64574 OP_EQUALVERIFY OP_CHECKSIG",
                "hex": "76a9141fc11f39be1729bf973a7ab6a615ca4729d6457488ac",
                "reqSigs": 1,
                "type": "pubkeyhash",
                "addresses": [
                    "EQa6hHhtHMKC26hyY856NGySNVxxb6wgi55s"
                ]
            }
        }
    ],
    "hex": "01000000021f5c38dfcf6f1a5f5a87c416076d392c87e6d41970d5ad5e477a02d66bde97580000000000fdffffff1f5c38dfcf6f1a5f5a87c416076d392c87e6d41970d5ad5e477a02d66bde97580000000000010000000180a81201000000001976a9141fc11f39be1729bf973a7ab6a615ca4729d6457488ac00000000"
}
