{
    "txid": "f54b1de81f468e5024e7892d8b6e86ba3691b7fb1c06a48b57e6a7cd9d93ae6e",
    "hash": "f54b1de81f468e5024e7892d8b6e86ba3691b7fb1c06a48b57e6a7cd9d93ae6e",
    "version": 2,
    "size": 85,
    "vsize": 85,
    "locktime": 0,
    "vin": [
        {
            "txid": "5897de6bd6027a475eadd57019d4e6872c396d0716c4875a5f1a6fcfdf385c1f",
            "vout": 0,
            "scriptSig": {
                "asm": "",
                "hex": ""
            },
            "sequence": 4294967293
        }
    ],
    "vout": [
        {
            "value": 0.18000000,
            "n": 0,
            "scriptPubKey": {
                "asm": "OP_DUP OP_HASH160 a6829cd247a96d3397caf3448dfb9a9da18cc90c OP_EQUALVERIFY OP_CHECKSIG",
                "hex": "76a914a6829cd247a96d3397caf3448dfb9a9da18cc90c88ac",
                "reqSigs": 1,
                "type": "pubkeyhash",
                "addresses": [
                    "EQaJyp3Z44W4cQoNUZEn4wSKVooRDMdHupP2"
                ]
            }
        }
    ],
    "hex": "02000000011f5c38dfcf6f1a5f5a87c416076d392c87e6d41970d5ad5e477a02d66bde97580000000000fdffffff0180a81201000000001976a914a6829cd247a96d3397caf3448dfb9a9da18cc90c88ac00000000"
}
