{
    "txid": "5b1855dec51450a333a7e0a9e30387c4dd5657202bbfb4397d8dbefbd7152d38",
    "hash": "5b1855dec51450a333a7e0a9e30387c4dd5657202bbfb4397d8dbefbd7152d38",
    "version": 2,
    "size": 197,
    "vsize": 197,
    "locktime": 0,
    "vin": [
        {
            "txid": "5897de6bd6027a475eadd57019d4e6872c396d0716c4875a5f1a6fcfdf385c1f",
            "vout": 0,
            "scriptSig": {
                "asm": "",
                "hex": ""
            },
            "sequence": 4294967295
        },
        {
            "txid": "bf829c6bcf84579331337659d31f89dfd138f7f7785802d5501c92333145ca7c",
            "vout": 18,
            "scriptSig": {
                "asm": "",
                "hex": ""
            },
            "sequence": 4294967295
        },
        {
            "txid": "22a6f904655d53ae2ff70e701a0bbd90aa3975c0f40bfc6cc996a9049e31cdfc",
            "vout": 1,
            "scriptSig": {
                "asm": "",
                "hex": ""
            },
            "sequence": 4294967295
        }
    ],
    "vout": [
        {
            "value": 0.18000000,
            "n": 0,
            "scriptPubKey": {
                "asm": "OP_HASH160 f2a6b681ab58902013f6a2886a462e389dd21eb2 OP_EQUAL",
                "hex": "a914f2a6b681ab58902013f6a2886a462e389dd21eb287",
                "reqSigs": 1,
                "type": "scripthash",
                "addresses": [
                    "EQsjTLz6aDCdHmvwg6igogW5X39hVavFRGdT"
                ]
            }
        },
        {
            "value": 4.00000000,
            "n": 1,
            "scriptPubKey": {
                "asm": "OP_HASH160 2eca67de992ce90c2bc56cfd83ae3596f092054f OP_EQUAL",
                "hex": "a9142eca67de992ce90c2bc56cfd83ae3596f092054f87",
                "reqSigs": 1,
                "type": "scripthash",
                "addresses": [
                    "EQsRbjJUjjo8yg4xVP35J43N932B89A35AYt"
                ]
            }
        }
    ],
    "hex": "02000000031f5c38dfcf6f1a5f5a87c416076d392c87e6d41970d5ad5e477a02d66bde97580000000000ffffffff7cca453133921c50d5025878f7f738d1df891fd359763331935784cf6b9c82bf1200000000fffffffffccd319e04a996c96cfc0bf4c07539aa90bd0b1a700ef72fae535d6504f9a6220100000000ffffffff0280a812010000000017a914f2a6b681ab58902013f6a2886a462e389dd21eb2870084d7170000000017a9142eca67de992ce90c2bc56cfd83ae3596f092054f8700000000"
}
