[
  [ "The following are deserialized transactions which are valid." ],
  [ "They are in the form" ],
  [ "[[[prevout hash, prevout index, prevout scriptPubKey, amount?], [input 2], ...]," ],
  [ "serializedTransaction, verifyFlags]" ],
  [ "Objects that are only a single string (like this one) are ignored" ],

  [ "The following is dbe6dc76c93f39a6c578e9fd5f89b63ea0384d552de8e5c193c07b23fc97b2ec" ],
  [ "It is a segwit enabled test using P2SH base58 address format" ],
  [ "Transfering 1.1EQB, generated through mining, to address TQaSbVXixpYUvQgzjWdLyGFMUfJDqR1DP88n" ],
  [
    [ [ "f541a712f2d4d31e15ba07af9573b4e2cc84ebf1c1ff3bb1c015f7b5100c215a", 0, "0x00 0x14 c4aeb84a2a705f98a22d65218eee6d1f5a260159" ] ],
    "020000000001015a210c10b5f715c0b13bffc1f1eb84cce2b47395af07ba151ed3d4f212a741f50100000017160014c4aeb84a2a705f98a22d65218eee6d1f5a260159feffffff028ee95a050000000017a9144b2e399eff5a3674ecd54006686171fb936cc8198780778e06000000001976a914901007ba13785cc7ba6abfb7b9cbcf7c14be3cc888ac02483045022100988d736c41d768a221da3802583fba8bcfb8a12af088e07994f0dbb847d052f5022076aa6103b1eef74c225fbb212ac3652df688c5858027da1edeb95104334982cc0121027b835d886ea4579737790eeb8586f37eef745ddf4b2578e6cb9ef574376958c56c0000000000",
    "P2SH"
  ],


  [ "The following is 553e480ac01484f9fffdef6f978fb78353735ef6edc7ee2fe2e4ee7835701ad2" ],
  [ "It is a segwit enabled test using P2SH base58 address format" ],
  [ "Transfering 1.2EQB to an address on a different wallet account TQsPL2ToGmSh5b44jXZxY7PHtqbT95GY9atZ" ],
  [
    [ [ "dbe6dc76c93f39a6c578e9fd5f89b63ea0384d552de8e5c193c07b23fc97b2ec", 0, "0x00 0x14 b44cb24191d6dfe3101241396d3d5c77f5d077f7" ] ],
    "020000000001025a210c10b5f715c0b13bffc1f1eb84cce2b47395af07ba151ed3d4f212a741f5000000006a47304402200a66f878d43811c8f2012d8f30f6b05a2d1b02ac0fc22e425b5a67dedfa7b778022036e35c2e5f62fe0d8941610a4ef1f5292a23ceaae44f2ed979964bf8738586810121034c63983b70d992bdaa8727b83c93c8885232ae824dc37c734f9906f41fe90851feffffffecb297fc237bc093c1e5e82d554d38a03eb6895ffde978c5a6393fc976dce6db0000000017160014b44cb24191d6dfe3101241396d3d5c77f5d077f7feffffff02000e27070000000017a914abe6d75bcc5845adad59c67c379c07b7755b7cb1875e3ac2040000000017a914d37bad622e2ca20c62553ec5220ecdcdddb2627f87000248304502210093d57620c86cb64483ee9f42211eaadb76466e7e8820a9242493eb7968643f8002207ae3f7179d3ed706976491089a7c293de64e082e9e13ed34e2816fcd23121167012103bc96d5268e01b8710a7896b87092416ebe962b85688d458a4d870bf020b30331660000000000",
    "P2SH"
  ],


  [ "The following is " ],
  [ "It is a segwit enabled test using P2SH base58 address format" ],
  [ "Transfering 1.3EQB to an address on a different wallet account " ],
  [ "The address of the sender does not belong to a miner" ],

  [ "The following is " ],
  [ "It is a segwit enabled test using Segwit Bech32 address format" ],
  [ "Transfering 1.4EQB to address " ],


  [ "The following is " ],
  [ "It is a segwit enabled test using Segwit Bech32 address format" ],
  [ "Transfering 1.4EQB to address " ],
  [ "The address of the sender does not belong to a miner" ],


  [ "Make diffs cleaner by leaving a comment here without comma at the end" ]
]
