[
  [ "The following are deserialized transactions which are valid." ],
  [ "They are in the form" ],
  [ "[[[prevout hash, prevout index, prevout scriptPubKey, amount?], [input 2], ...]," ],
  [ "serializedTransaction, verifyFlags]" ],
  [ "Objects that are only a single string (like this one) are ignored" ],

  [ "The following is dbe6dc76c93f39a6c578e9fd5f89b63ea0384d552de8e5c193c07b23fc97b2ec" ],
  [ "It is a segwit enabled test using P2SH base58 address format" ],
  [ "Transfering 1.1EQB, generated through mining, to P2PK address TQaSbVXixpYUvQgzjWdLyGFMUfJDqR1DP88n" ],
  [
    [ [ "f541a712f2d4d31e15ba07af9573b4e2cc84ebf1c1ff3bb1c015f7b5100c215a", 1, "0x00 0x14 0xc4aeb84a2a705f98a22d65218eee6d1f5a260159" ] ],
    "020000000001015a210c10b5f715c0b13bffc1f1eb84cce2b47395af07ba151ed3d4f212a741f50100000017160014c4aeb84a2a705f98a22d65218eee6d1f5a260159feffffff028ee95a050000000017a9144b2e399eff5a3674ecd54006686171fb936cc8198780778e06000000001976a914901007ba13785cc7ba6abfb7b9cbcf7c14be3cc888ac02483045022100988d736c41d768a221da3802583fba8bcfb8a12af088e07994f0dbb847d052f5022076aa6103b1eef74c225fbb212ac3652df688c5858027da1edeb95104334982cc0121027b835d886ea4579737790eeb8586f37eef745ddf4b2578e6cb9ef574376958c56c0000000000",
    "P2SH"
  ],

  [ "The following is f8fc827cf2c6dac434652ee461c23c5f7f98e12b888bd6343d498fde7419f4bf" ],
  [ "It is a segwit transaction generated from mining a block, Null -> A " ],
  [
    [ [ "0000000000000000000000000000000000000000000000000000000000000000", 0, "0x51" ] ],
    "020000000001010000000000000000000000000000000000000000000000000000000000000000ffffffff03510101ffffffff02d6f4771200000000160014f1101b107662ca5105139732191df4641a0a185d0000000000000000266a24aa21a9ed070fa1ab6fcc557ed14d42941f1967693048551eb9042a8d0a057afbd75e81e001200000000000000000000000000000000000000000000000000000000000000000000000000000",
    ""
  ],

  [ "The following is efa09f379f89cc6e01bd943aa67ab238bb92220d347577a39e53d587ad06754f" ],
  [ "It is a segwit transaction A -> B " ],
  [
    [ [ "f8fc827cf2c6dac434652ee461c23c5f7f98e12b888bd6343d498fde7419f4bf", 0, "0x51" ] ],
    "02000000000101bff41974de8f493d34d68b882be1987f5f3cc261e42e6534c4dac6f27c82fcf80000000000feffffff022a72e90b000000001600145b00a2d2d68b87c40ef56fdd1872bf837f8e3f4580778e0600000000160014e055d1cf14afe0ab5275c3697465da4d807450c902483045022100e5b7bdc9a8acdd67018212d0937c6db9f4bea9a9f53789195ac3375b6b4afdad0220087c122d6d3516655b96f4de0251fa9780387923cca2cdf8ceb3695fdb42488c01210390d0e5045c0db06d8a983f760d811edbeddd7d4361c35dfcfc2778a192169194650000000000",
    "WITNESS"
  ],

  [ "The following is 8323c1ab9fff353ccd7afa1067a5111dec2201d0c309f1552c53df9020143460" ],
  [ "It is a segwit transaction A -> C " ],
  [
    [ [ "efa09f379f89cc6e01bd943aa67ab238bb92220d347577a39e53d587ad06754f", 0, "0x51" ] ],
    "020000000001014f7506ad87d5539ea37775340d2292bb38b27aa63a94bd016ecc899f379fa0ef0000000000feffffff0280778e0600000000160014d80015cc262f154658de2ea9825aa5030d6a82d27eef5a0500000000160014475f14409f3ee30d945e6016fe5cf36b2050e2ed02483045022100d2489035c247dedd7385eb3c8d274ee24c74e9bdffdb3b1ddf2c72bedabbd9d702203c889998b655f05a1dead39144802173eae0c570a60b05b4e68dc590ee85f5c70121028b2f4267657b62fa77ff17bc56a7f43255a9da75539c3cec790ee78a49e48df5660000000000",
    "WITNESS"
  ],

  [ "The following is f7d2c67317161a63e1b4618a9182ccec7b3d696b874eaef3cd9c7355ab2aa28e" ],
  [ "It is a segwit transaction B -> C " ],
  [
    [ [ "8323c1ab9fff353ccd7afa1067a5111dec2201d0c309f1552c53df9020143460", 1, "0x51" ] ],
    "020000000001016034142090df532c55f109c3d00122ec1d11a56710fa7acd3c35ff9fabc123830100000000feffffff02d24dc204000000001600142eae2e3d56e6e98dccb4264a77287e89fa13711b8096980000000000160014d80015cc262f154658de2ea9825aa5030d6a82d202483045022100e3fe17b5e6770c252cdb861667900d458564edfce4c91c2216a98ffe7331d6d102201e61c018985d301ec16ef544afe4df3a7933d2e1e6de55dfecad01e6624e4fa6012102e9ad48f0b95240c97f5830c7c277d333f2330c289e23e1718901f54a47e5745d0c0000000000",
    "WITNESS"
  ],

  [ "The following is 982f05eef256aa1fdaf20a63eeb6ed396c1d7e15b6ec843fad0f7084757235cf" ],
  [ "It is another segwit transaction B -> C " ],
  [
    [ [ "f7d2c67317161a63e1b4618a9182ccec7b3d696b874eaef3cd9c7355ab2aa28e", 0, "0x51" ] ],
    "020000000001028ea22aab55739ccdf3ae4e876b693d7beccc82918a61b4e1631a161773c6d2f70000000000feffffff8ea22aab55739ccdf3ae4e876b693d7beccc82918a61b4e1631a161773c6d2f70100000000feffffff0200b4c40400000000160014d80015cc262f154658de2ea9825aa5030d6a82d2d61f960000000000160014a6e29da77fa90bbd36c23a58f760bfdb8e6ed2770247304402202bd1cd8f97606e283991e2124f665c76b39c1dccc3cddc5e17b0aaf812b1287802204c5cbcf204041c1498661c6864ae0594537a1d5afc7f647a857f6bd6ad986453012102aa7485d773a49f5a6ba005a7b2d5aff9d0b95e1df658c87bfb9bc72d7d1947e102473044022010d180d9e1363f6710788560e8110c4f0e7b25f612d75ac35d0370c525bafa3e02205e6e8856dabea478739df4fb14e0e977a8e94aaef4a2a0feeed157f9277bbeb7012103f5030d1cad6920bac7717ea7c3e6bb2dbab8463362bf3a2fc1285dc28d354305680000000000",
    "WITNESS"
  ],

  [ "The following is dff4e0e305980158c6df4d8f76c62ac30bec52df3acb1c936f224c20e2035051" ],
  [ "It is a segwit transaction C -> B " ],
  [
    [ [ "8323c1ab9fff353ccd7afa1067a5111dec2201d0c309f1552c53df9020143460", 0, "0x51" ] ],
    "020000000001016034142090df532c55f109c3d00122ec1d11a56710fa7acd3c35ff9fabc123830000000000feffffff02548b9800000000001600144b3ab2694d2be85b22e85cd982dd92e7d52a21f400e1f50500000000160014488ae8d6ded31d91fb83d5b19d26e52f031b5d4502483045022100bf1a847ed6afdaf453e6ace58f6d536f9d6bfdd47f1a067cfd7b3909c3894ec8022018677655e68a95213fe68a55f64991a20bcf02987c64097937e2a486a293d004012103f5030d1cad6920bac7717ea7c3e6bb2dbab8463362bf3a2fc1285dc28d354305690000000000",
    "WITNESS"
  ],

  [ "Make diffs cleaner by leaving a comment here without comma at the end" ]
]
